{
  "_format": "hh-sol-artifact-1",
  "contractName": "Library",
  "sourceName": "contracts/Library.sol",
  "abi": [
    {
      "inputs": [],
      "name": "AlreadyBorrowedBook",
      "type": "error"
    },
    {
      "inputs": [],
      "name": "BookAlreadyAdded",
      "type": "error"
    },
    {
      "inputs": [],
      "name": "BookUnavailable",
      "type": "error"
    },
    {
      "inputs": [],
      "name": "InvalidBookCopies",
      "type": "error"
    },
    {
      "inputs": [],
      "name": "InvalidBookName",
      "type": "error"
    },
    {
      "inputs": [],
      "name": "NotOwner",
      "type": "error"
    },
    {
      "anonymous": false,
      "inputs": [
        {
          "indexed": true,
          "internalType": "string",
          "name": "bookName",
          "type": "string"
        },
        {
          "indexed": false,
          "internalType": "uint256",
          "name": "copies",
          "type": "uint256"
        }
      ],
      "name": "AddBook",
      "type": "event"
    },
    {
      "anonymous": false,
      "inputs": [
        {
          "indexed": true,
          "internalType": "address",
          "name": "borrower",
          "type": "address"
        },
        {
          "indexed": true,
          "internalType": "string",
          "name": "bookName",
          "type": "string"
        }
      ],
      "name": "BorrowBook",
      "type": "event"
    },
    {
      "anonymous": false,
      "inputs": [
        {
          "indexed": true,
          "internalType": "address",
          "name": "previousOwner",
          "type": "address"
        },
        {
          "indexed": true,
          "internalType": "address",
          "name": "newOwner",
          "type": "address"
        }
      ],
      "name": "OwnershipTransferred",
      "type": "event"
    },
    {
      "anonymous": false,
      "inputs": [
        {
          "indexed": true,
          "internalType": "address",
          "name": "borrower",
          "type": "address"
        },
        {
          "indexed": true,
          "internalType": "string",
          "name": "bookName",
          "type": "string"
        }
      ],
      "name": "ReturnBook",
      "type": "event"
    },
    {
      "inputs": [
        {
          "internalType": "string",
          "name": "_bookName",
          "type": "string"
        },
        {
          "internalType": "uint256",
          "name": "_copies",
          "type": "uint256"
        }
      ],
      "name": "addBook",
      "outputs": [],
      "stateMutability": "nonpayable",
      "type": "function"
    },
    {
      "inputs": [
        {
          "internalType": "uint256",
          "name": "",
          "type": "uint256"
        }
      ],
      "name": "bookKeys",
      "outputs": [
        {
          "internalType": "bytes32",
          "name": "",
          "type": "bytes32"
        }
      ],
      "stateMutability": "view",
      "type": "function"
    },
    {
      "inputs": [
        {
          "internalType": "bytes32",
          "name": "",
          "type": "bytes32"
        }
      ],
      "name": "books",
      "outputs": [
        {
          "internalType": "string",
          "name": "name",
          "type": "string"
        },
        {
          "internalType": "uint256",
          "name": "copies",
          "type": "uint256"
        }
      ],
      "stateMutability": "view",
      "type": "function"
    },
    {
      "inputs": [
        {
          "internalType": "string",
          "name": "_bookName",
          "type": "string"
        }
      ],
      "name": "borrowBook",
      "outputs": [],
      "stateMutability": "nonpayable",
      "type": "function"
    },
    {
      "inputs": [
        {
          "internalType": "address",
          "name": "",
          "type": "address"
        },
        {
          "internalType": "bytes32",
          "name": "",
          "type": "bytes32"
        }
      ],
      "name": "borrowedBooks",
      "outputs": [
        {
          "internalType": "bool",
          "name": "",
          "type": "bool"
        }
      ],
      "stateMutability": "view",
      "type": "function"
    },
    {
      "inputs": [
        {
          "internalType": "string",
          "name": "_bookName",
          "type": "string"
        }
      ],
      "name": "getBook",
      "outputs": [
        {
          "components": [
            {
              "internalType": "string",
              "name": "name",
              "type": "string"
            },
            {
              "internalType": "uint256",
              "name": "copies",
              "type": "uint256"
            },
            {
              "internalType": "address[]",
              "name": "borrowers",
              "type": "address[]"
            }
          ],
          "internalType": "struct Library.Book",
          "name": "",
          "type": "tuple"
        }
      ],
      "stateMutability": "view",
      "type": "function"
    },
    {
      "inputs": [],
      "name": "getNumberOfBooks",
      "outputs": [
        {
          "internalType": "uint256",
          "name": "",
          "type": "uint256"
        }
      ],
      "stateMutability": "view",
      "type": "function"
    },
    {
      "inputs": [
        {
          "internalType": "bytes32",
          "name": "",
          "type": "bytes32"
        }
      ],
      "name": "insertedBookKeys",
      "outputs": [
        {
          "internalType": "bool",
          "name": "",
          "type": "bool"
        }
      ],
      "stateMutability": "view",
      "type": "function"
    },
    {
      "inputs": [],
      "name": "owner",
      "outputs": [
        {
          "internalType": "address",
          "name": "",
          "type": "address"
        }
      ],
      "stateMutability": "view",
      "type": "function"
    },
    {
      "inputs": [],
      "name": "renounceOwnership",
      "outputs": [],
      "stateMutability": "nonpayable",
      "type": "function"
    },
    {
      "inputs": [
        {
          "internalType": "string",
          "name": "_bookName",
          "type": "string"
        }
      ],
      "name": "returnBook",
      "outputs": [],
      "stateMutability": "nonpayable",
      "type": "function"
    },
    {
      "inputs": [
        {
          "internalType": "string",
          "name": "_string",
          "type": "string"
        }
      ],
      "name": "stringToByte32",
      "outputs": [
        {
          "internalType": "bytes32",
          "name": "",
          "type": "bytes32"
        }
      ],
      "stateMutability": "pure",
      "type": "function"
    },
    {
      "inputs": [
        {
          "internalType": "address",
          "name": "newOwner",
          "type": "address"
        }
      ],
      "name": "transferOwnership",
      "outputs": [],
      "stateMutability": "nonpayable",
      "type": "function"
    }
  ],
  "bytecode": "0x608060405234801561001057600080fd5b5061002d61002261003260201b60201c565b61003a60201b60201c565b6100fe565b600033905090565b60008060009054906101000a900473ffffffffffffffffffffffffffffffffffffffff169050816000806101000a81548173ffffffffffffffffffffffffffffffffffffffff021916908373ffffffffffffffffffffffffffffffffffffffff1602179055508173ffffffffffffffffffffffffffffffffffffffff168173ffffffffffffffffffffffffffffffffffffffff167f8be0079c531659141344cd1fd0a4f28419497f9722a3daafe3b4186f6b6457e060405160405180910390a35050565b61224f806200010e6000396000f3fe608060405234801561001057600080fd5b50600436106100ce5760003560e01c80638da5cb5b1161008c578063ce89b01211610066578063ce89b01214610212578063ced96fe314610242578063dae47ab01461025e578063f2fde38b1461028e576100ce565b80638da5cb5b14610194578063a0e7bdb7146101b2578063c37a8361146101e2576100ce565b8062cd3b62146100d35780630c0dee70146101035780631ef49a8c14610134578063637a387214610150578063715018a61461016c5780638625f9d214610176575b600080fd5b6100ed60048036038101906100e89190611799565b6102aa565b6040516100fa91906117f4565b60405180910390f35b61011d6004803603810190610118919061180f565b6102d9565b60405161012b9291906118e5565b60405180910390f35b61014e6004803603810190610149919061197a565b610385565b005b61016a600480360381019061016591906119f3565b61074a565b005b610174610c07565b005b61017e610c1b565b60405161018b9190611a53565b60405180910390f35b61019c610c64565b6040516101a99190611a7d565b60405180910390f35b6101cc60048036038101906101c7919061197a565b610c8d565b6040516101d99190611aa7565b60405180910390f35b6101fc60048036038101906101f7919061197a565b610ce0565b6040516102099190611c30565b60405180910390f35b61022c6004803603810190610227919061180f565b610f71565b60405161023991906117f4565b60405180910390f35b61025c6004803603810190610257919061197a565b610f91565b005b61027860048036038101906102739190611c52565b61143f565b6040516102859190611aa7565b60405180910390f35b6102a860048036038101906102a39190611c7f565b611463565b005b60046020528160005260406000206020528060005260406000206000915091509054906101000a900460ff1681565b60036020528060005260406000206000915090508060000180546102fc90611cdb565b80601f016020809104026020016040519081016040528092919081815260200182805461032890611cdb565b80156103755780601f1061034a57610100808354040283529160200191610375565b820191906000526020600020905b81548152906001019060200180831161035857829003601f168201915b5050505050908060010154905082565b610399676ffb5efe159113a260c01b6114e6565b81816103af67e05ea26ff52fcc0360c01b6114e6565b6103c36726e2a1360260e36460c01b6114e6565b6103d76705ca79b81548964c60c01b6114e6565b6000828290501180156103ee575060208282905011155b61043857610406678909413f9f07e6b960c01b6114e6565b6040517f2defd1c100000000000000000000000000000000000000000000000000000000815260040160405180910390fd5b61044c6726073377ce8dbb6360c01b6114e6565b610460679ea0e667697b896b60c01b6114e6565b61047467fec5026eb449c4af60c01b6114e6565b610488673ccdfec6d0f2104f60c01b6114e6565b838361049e6752f30776344264cd60c01b6114e6565b6104b267d87bbf60f7c6761860c01b6114e6565b6104c667c14dca8f5017d13260c01b6114e6565b600460003373ffffffffffffffffffffffffffffffffffffffff1673ffffffffffffffffffffffffffffffffffffffff16815260200190815260200160002060008383906105149190611d24565b815260200190815260200160002060009054906101000a900460ff1661057a57610548670d8a6da936c3a8db60c01b6114e6565b6040517f30cd747100000000000000000000000000000000000000000000000000000000815260040160405180910390fd5b61058e67facf84d6b653478760c01b6114e6565b6105a2673dacbc341ccb542760c01b6114e6565b6105b66798b7211c0cd4f76160c01b6114e6565b6105ca67bfcdf4997d221cf460c01b6114e6565b6105de677dfdeb640593cbd760c01b6114e6565b6105f2671ce9e0f85ee0d8ab60c01b6114e6565b60008686906106019190611d24565b905061061767d4140083d59c080e60c01b6114e6565b6000600460003373ffffffffffffffffffffffffffffffffffffffff1673ffffffffffffffffffffffffffffffffffffffff168152602001908152602001600020600083815260200190815260200160002060006101000a81548160ff02191690831515021790555061069467d165a83cc8fdc0b960c01b6114e6565b60036000828152602001908152602001600020600101600081546106b790611db2565b919050819055506106d267b1bc3a629c92776460c01b6114e6565b6106e6677a842b86eb36859160c01b6114e6565b86866040516106f6929190611e39565b60405180910390203373ffffffffffffffffffffffffffffffffffffffff167f6329eadd62914ce279180aa06326775b1521a0c31db9d1b834a3a8dd1680a56260405160405180910390a350505050505050565b61075e6777d0ead6f26af9d660c01b6114e6565b828261077467e05ea26ff52fcc0360c01b6114e6565b6107886726e2a1360260e36460c01b6114e6565b61079c6705ca79b81548964c60c01b6114e6565b6000828290501180156107b3575060208282905011155b6107fd576107cb678909413f9f07e6b960c01b6114e6565b6040517f2defd1c100000000000000000000000000000000000000000000000000000000815260040160405180910390fd5b6108116726073377ce8dbb6360c01b6114e6565b610825679ea0e667697b896b60c01b6114e6565b61083967e7c4a1aeab24331b60c01b6114e6565b61084d674034e917bfa16aca60c01b6114e6565b6108556114e9565b610869678e7cb61507e1736b60c01b6114e6565b61087d67242f91fd738177b460c01b6114e6565b6108916774e21d2194f8b28060c01b6114e6565b6108a567601fbf8ff800d76c60c01b6114e6565b600083036108f3576108c167dab4136ad867267260c01b6114e6565b6040517fa7f5b3c500000000000000000000000000000000000000000000000000000000815260040160405180910390fd5b610907674a1483453946d23b60c01b6114e6565b61091b6753effad6a630836760c01b6114e6565b61092f679aeef28f78ea626460c01b6114e6565b600085859061093e9190611d24565b90506109546793f9d9093ff9c2fa60c01b6114e6565b61096867c4ee1c5c5167f9c260c01b6114e6565b6002600082815260200190815260200160002060009054906101000a900460ff16156109d4576109a26737ae092b6bba3f0360c01b6114e6565b6040517f42d817cd00000000000000000000000000000000000000000000000000000000815260040160405180910390fd5b6109e867df79d6f4174d628060c01b6114e6565b6109fc677d6cfd2ef36e662260c01b6114e6565b60016002600083815260200190815260200160002060006101000a81548160ff021916908315150217905550610a3c6703c88f2e1eba513d60c01b6114e6565b610a50670b9a0948ac745d9660c01b6114e6565b6001819080600181540180825580915050600190039060005260206000200160009091909190915055610a8d677636470d1858561860c01b6114e6565b604051806060016040528087878080601f016020809104026020016040519081016040528093929190818152602001838380828437600081840152601f19601f820116905080830192505050505050508152602001858152602001600067ffffffffffffffff811115610b0357610b02611e52565b5b604051908082528060200260200182016040528015610b315781602001602082028036833780820191505090505b50815250600360008381526020019081526020016000206000820151816000019081610b5d9190612020565b50602082015181600101556040820151816002019080519060200190610b84929190611633565b50905050610b9c676c930b78b1736f8f60c01b6114e6565b610bb0676e83609afd657cfb60c01b6114e6565b8585604051610bc0929190611e39565b60405180910390207f265be2e281b6bc0fdda70f3e7ba8a9f50a65d4ac6ec9ecb5f1626d6f8436dc6785604051610bf79190611a53565b60405180910390a2505050505050565b610c0f6114e9565b610c196000611567565b565b6000610c31677e86ee63c1eb929360c01b6114e6565b610c4567b3e7a01fca7487ab60c01b6114e6565b610c5967e8b6f06b167aa43460c01b6114e6565b600180549050905090565b60008060009054906101000a900473ffffffffffffffffffffffffffffffffffffffff16905090565b6000610ca3679c58e38de3caf25760c01b6114e6565b610cb7678ca5fbe6cf7d712f60c01b6114e6565b610ccb671ad315a4d7f6b0a760c01b6114e6565b828290610cd89190611d24565b905092915050565b610ce86116bd565b610cfc67916fcd080466f40a60c01b6114e6565b8282610d1267e05ea26ff52fcc0360c01b6114e6565b610d266726e2a1360260e36460c01b6114e6565b610d3a6705ca79b81548964c60c01b6114e6565b600082829050118015610d51575060208282905011155b610d9b57610d69678909413f9f07e6b960c01b6114e6565b6040517f2defd1c100000000000000000000000000000000000000000000000000000000815260040160405180910390fd5b610daf6726073377ce8dbb6360c01b6114e6565b610dc3679ea0e667697b896b60c01b6114e6565b610dd7677ea966361212911d60c01b6114e6565b610deb67d7f04fbdc9da8b9060c01b6114e6565b610dff6786c5b1fd276bf3c560c01b6114e6565b610e136759c161d2db57f7e760c01b6114e6565b60036000868690610e249190611d24565b8152602001908152602001600020604051806060016040529081600082018054610e4d90611cdb565b80601f0160208091040260200160405190810160405280929190818152602001828054610e7990611cdb565b8015610ec65780601f10610e9b57610100808354040283529160200191610ec6565b820191906000526020600020905b815481529060010190602001808311610ea957829003601f168201915b505050505081526020016001820154815260200160028201805480602002602001604051908101604052809291908181526020018280548015610f5e57602002820191906000526020600020905b8160009054906101000a900473ffffffffffffffffffffffffffffffffffffffff1673ffffffffffffffffffffffffffffffffffffffff1681526020019060010190808311610f14575b5050505050815250509250505092915050565b60026020528060005260406000206000915054906101000a900460ff1681565b610fa56773b9b3cbb53ea5a860c01b6114e6565b8181610fbb67e05ea26ff52fcc0360c01b6114e6565b610fcf6726e2a1360260e36460c01b6114e6565b610fe36705ca79b81548964c60c01b6114e6565b600082829050118015610ffa575060208282905011155b61104457611012678909413f9f07e6b960c01b6114e6565b6040517f2defd1c100000000000000000000000000000000000000000000000000000000815260040160405180910390fd5b6110586726073377ce8dbb6360c01b6114e6565b61106c679ea0e667697b896b60c01b6114e6565b6110806702e4b335454088b560c01b6114e6565b611094677a2c34e47c7ebfb560c01b6114e6565b6110a86710189b10f725f92b60c01b6114e6565b6110bc67f7955861c3195d3060c01b6114e6565b60008484906110cb9190611d24565b90506110e167413ca44eb0bf5f2460c01b6114e6565b6110f5674b3098609a30c23160c01b6114e6565b60006003600083815260200190815260200160002090506111206704f139beb1cafeec60c01b6114e6565b611134675be15fee0c0f18e660c01b6114e6565b60008160010154036111865761115467a996f61792bddabb60c01b6114e6565b6040517f4605b23c00000000000000000000000000000000000000000000000000000000815260040160405180910390fd5b61119a6733144503d0a5da8860c01b6114e6565b6111ae6739e396df747ab14860c01b6114e6565b6111c267ea1010c31273a20c60c01b6114e6565b600460003373ffffffffffffffffffffffffffffffffffffffff1673ffffffffffffffffffffffffffffffffffffffff168152602001908152602001600020600083815260200190815260200160002060009054906101000a900460ff161561126a5761123866c2fe0feadd126960c01b6114e6565b6040517f63736fa300000000000000000000000000000000000000000000000000000000815260040160405180910390fd5b61127e67cb627135a41a512960c01b6114e6565b611292671a36b6ac6fd45beb60c01b6114e6565b80600101600081546112a3906120f2565b919050819055506112be676fd0a8bd171643a260c01b6114e6565b6001600460003373ffffffffffffffffffffffffffffffffffffffff1673ffffffffffffffffffffffffffffffffffffffff168152602001908152602001600020600084815260200190815260200160002060006101000a81548160ff02191690831515021790555061133b678dbb1dc66699605560c01b6114e6565b61134f67f5489942e4a3643960c01b6114e6565b80600201339080600181540180825580915050600190039060005260206000200160009091909190916101000a81548173ffffffffffffffffffffffffffffffffffffffff021916908373ffffffffffffffffffffffffffffffffffffffff1602179055506113c8673b6f10c1f841116860c01b6114e6565b6113dc670d6f08ff135b042560c01b6114e6565b85856040516113ec929190611e39565b60405180910390203373ffffffffffffffffffffffffffffffffffffffff167f81c265986946ec7ae18b8d3bde15701ccd5d8221acbc9c086f8c603d188438c360405160405180910390a3505050505050565b6001818154811061144f57600080fd5b906000526020600020016000915090505481565b61146b6114e9565b600073ffffffffffffffffffffffffffffffffffffffff168173ffffffffffffffffffffffffffffffffffffffff16036114da576040517f08c379a00000000000000000000000000000000000000000000000000000000081526004016114d19061218d565b60405180910390fd5b6114e381611567565b50565b50565b6114f161162b565b73ffffffffffffffffffffffffffffffffffffffff1661150f610c64565b73ffffffffffffffffffffffffffffffffffffffff1614611565576040517f08c379a000000000000000000000000000000000000000000000000000000000815260040161155c906121f9565b60405180910390fd5b565b60008060009054906101000a900473ffffffffffffffffffffffffffffffffffffffff169050816000806101000a81548173ffffffffffffffffffffffffffffffffffffffff021916908373ffffffffffffffffffffffffffffffffffffffff1602179055508173ffffffffffffffffffffffffffffffffffffffff168173ffffffffffffffffffffffffffffffffffffffff167f8be0079c531659141344cd1fd0a4f28419497f9722a3daafe3b4186f6b6457e060405160405180910390a35050565b600033905090565b8280548282559060005260206000209081019282156116ac579160200282015b828111156116ab5782518260006101000a81548173ffffffffffffffffffffffffffffffffffffffff021916908373ffffffffffffffffffffffffffffffffffffffff16021790555091602001919060010190611653565b5b5090506116b991906116de565b5090565b60405180606001604052806060815260200160008152602001606081525090565b5b808211156116f75760008160009055506001016116df565b5090565b600080fd5b600080fd5b600073ffffffffffffffffffffffffffffffffffffffff82169050919050565b600061173082611705565b9050919050565b61174081611725565b811461174b57600080fd5b50565b60008135905061175d81611737565b92915050565b6000819050919050565b61177681611763565b811461178157600080fd5b50565b6000813590506117938161176d565b92915050565b600080604083850312156117b0576117af6116fb565b5b60006117be8582860161174e565b92505060206117cf85828601611784565b9150509250929050565b60008115159050919050565b6117ee816117d9565b82525050565b600060208201905061180960008301846117e5565b92915050565b600060208284031215611825576118246116fb565b5b600061183384828501611784565b91505092915050565b600081519050919050565b600082825260208201905092915050565b60005b8381101561187657808201518184015260208101905061185b565b60008484015250505050565b6000601f19601f8301169050919050565b600061189e8261183c565b6118a88185611847565b93506118b8818560208601611858565b6118c181611882565b840191505092915050565b6000819050919050565b6118df816118cc565b82525050565b600060408201905081810360008301526118ff8185611893565b905061190e60208301846118d6565b9392505050565b600080fd5b600080fd5b600080fd5b60008083601f84011261193a57611939611915565b5b8235905067ffffffffffffffff8111156119575761195661191a565b5b6020830191508360018202830111156119735761197261191f565b5b9250929050565b60008060208385031215611991576119906116fb565b5b600083013567ffffffffffffffff8111156119af576119ae611700565b5b6119bb85828601611924565b92509250509250929050565b6119d0816118cc565b81146119db57600080fd5b50565b6000813590506119ed816119c7565b92915050565b600080600060408486031215611a0c57611a0b6116fb565b5b600084013567ffffffffffffffff811115611a2a57611a29611700565b5b611a3686828701611924565b93509350506020611a49868287016119de565b9150509250925092565b6000602082019050611a6860008301846118d6565b92915050565b611a7781611725565b82525050565b6000602082019050611a926000830184611a6e565b92915050565b611aa181611763565b82525050565b6000602082019050611abc6000830184611a98565b92915050565b600082825260208201905092915050565b6000611ade8261183c565b611ae88185611ac2565b9350611af8818560208601611858565b611b0181611882565b840191505092915050565b611b15816118cc565b82525050565b600081519050919050565b600082825260208201905092915050565b6000819050602082019050919050565b611b5081611725565b82525050565b6000611b628383611b47565b60208301905092915050565b6000602082019050919050565b6000611b8682611b1b565b611b908185611b26565b9350611b9b83611b37565b8060005b83811015611bcc578151611bb38882611b56565b9750611bbe83611b6e565b925050600181019050611b9f565b5085935050505092915050565b60006060830160008301518482036000860152611bf68282611ad3565b9150506020830151611c0b6020860182611b0c565b5060408301518482036040860152611c238282611b7b565b9150508091505092915050565b60006020820190508181036000830152611c4a8184611bd9565b905092915050565b600060208284031215611c6857611c676116fb565b5b6000611c76848285016119de565b91505092915050565b600060208284031215611c9557611c946116fb565b5b6000611ca38482850161174e565b91505092915050565b7f4e487b7100000000000000000000000000000000000000000000000000000000600052602260045260246000fd5b60006002820490506001821680611cf357607f821691505b602082108103611d0657611d05611cac565b5b50919050565b600082905092915050565b600082821b905092915050565b6000611d308383611d0c565b82611d3b8135611763565b92506020821015611d7b57611d767fffffffffffffffffffffffffffffffffffffffffffffffffffffffffffffffff83602003600802611d17565b831692505b505092915050565b7f4e487b7100000000000000000000000000000000000000000000000000000000600052601160045260246000fd5b6000611dbd826118cc565b91507fffffffffffffffffffffffffffffffffffffffffffffffffffffffffffffffff8203611def57611dee611d83565b5b600182019050919050565b600081905092915050565b82818337600083830152505050565b6000611e208385611dfa565b9350611e2d838584611e05565b82840190509392505050565b6000611e46828486611e14565b91508190509392505050565b7f4e487b7100000000000000000000000000000000000000000000000000000000600052604160045260246000fd5b60008190508160005260206000209050919050565b60006020601f8301049050919050565b600060088302611ed67fffffffffffffffffffffffffffffffffffffffffffffffffffffffffffffffff82611d17565b611ee08683611d17565b95508019841693508086168417925050509392505050565b6000819050919050565b6000611f1d611f18611f13846118cc565b611ef8565b6118cc565b9050919050565b6000819050919050565b611f3783611f02565b611f4b611f4382611f24565b848454611ea6565b825550505050565b600090565b611f60611f53565b611f6b818484611f2e565b505050565b5b81811015611f8f57611f84600082611f58565b600181019050611f71565b5050565b601f821115611fd457611fa581611e81565b611fae84611e96565b81016020851015611fbd578190505b611fd1611fc985611e96565b830182611f70565b50505b505050565b600082821c905092915050565b6000611ff760001984600802611fd9565b1980831691505092915050565b60006120108383611fe6565b9150826002028217905092915050565b6120298261183c565b67ffffffffffffffff81111561204257612041611e52565b5b61204c8254611cdb565b612057828285611f93565b600060209050601f83116001811461208a5760008415612078578287015190505b6120828582612004565b8655506120ea565b601f19841661209886611e81565b60005b828110156120c05784890151825560018201915060208501945060208101905061209b565b868310156120dd57848901516120d9601f891682611fe6565b8355505b6001600288020188555050505b505050505050565b60006120fd826118cc565b9150600082036121105761210f611d83565b5b600182039050919050565b7f4f776e61626c653a206e6577206f776e657220697320746865207a65726f206160008201527f6464726573730000000000000000000000000000000000000000000000000000602082015250565b6000612177602683611847565b91506121828261211b565b604082019050919050565b600060208201905081810360008301526121a68161216a565b9050919050565b7f4f776e61626c653a2063616c6c6572206973206e6f7420746865206f776e6572600082015250565b60006121e3602083611847565b91506121ee826121ad565b602082019050919050565b60006020820190508181036000830152612212816121d6565b905091905056fea264697066735822122090110c97df3a61f91cd4a810536fce2f7e3892c5d05f4a5c22e2e257a30d448a64736f6c63430008110033",
  "linkReferences": {},
  "deployedLinkReferences": {}
}